{
  "_format": "hh-sol-artifact-1",
  "contractName": "Token",
  "sourceName": "contracts/Token.sol",
  "abi": [
    {
      "inputs": [],
      "stateMutability": "nonpayable",
      "type": "constructor"
    },
    {
      "anonymous": false,
      "inputs": [
        {
          "indexed": true,
          "internalType": "address",
          "name": "owner",
          "type": "address"
        },
        {
          "indexed": true,
          "internalType": "address",
          "name": "approved",
          "type": "address"
        },
        {
          "indexed": true,
          "internalType": "uint256",
          "name": "tokenId",
          "type": "uint256"
        }
      ],
      "name": "Approval",
      "type": "event"
    },
    {
      "anonymous": false,
      "inputs": [
        {
          "indexed": true,
          "internalType": "address",
          "name": "owner",
          "type": "address"
        },
        {
          "indexed": true,
          "internalType": "address",
          "name": "operator",
          "type": "address"
        },
        {
          "indexed": false,
          "internalType": "bool",
          "name": "approved",
          "type": "bool"
        }
      ],
      "name": "ApprovalForAll",
      "type": "event"
    },
    {
      "anonymous": false,
      "inputs": [
        {
          "indexed": false,
          "internalType": "uint8",
          "name": "version",
          "type": "uint8"
        }
      ],
      "name": "Initialized",
      "type": "event"
    },
    {
      "anonymous": false,
      "inputs": [
        {
          "indexed": true,
          "internalType": "address",
          "name": "previousOwner",
          "type": "address"
        },
        {
          "indexed": true,
          "internalType": "address",
          "name": "newOwner",
          "type": "address"
        }
      ],
      "name": "OwnershipTransferred",
      "type": "event"
    },
    {
      "anonymous": false,
      "inputs": [
        {
          "indexed": true,
          "internalType": "address",
          "name": "from",
          "type": "address"
        },
        {
          "indexed": true,
          "internalType": "address",
          "name": "to",
          "type": "address"
        },
        {
          "indexed": true,
          "internalType": "uint256",
          "name": "tokenId",
          "type": "uint256"
        }
      ],
      "name": "Transfer",
      "type": "event"
    },
    {
      "inputs": [
        {
          "internalType": "address",
          "name": "to",
          "type": "address"
        },
        {
          "internalType": "uint256",
          "name": "tokenId",
          "type": "uint256"
        }
      ],
      "name": "approve",
      "outputs": [],
      "stateMutability": "nonpayable",
      "type": "function"
    },
    {
      "inputs": [
        {
          "internalType": "address",
          "name": "owner",
          "type": "address"
        }
      ],
      "name": "balanceOf",
      "outputs": [
        {
          "internalType": "uint256",
          "name": "",
          "type": "uint256"
        }
      ],
      "stateMutability": "view",
      "type": "function"
    },
    {
      "inputs": [
        {
          "internalType": "uint256",
          "name": "tokenId",
          "type": "uint256"
        }
      ],
      "name": "getApproved",
      "outputs": [
        {
          "internalType": "address",
          "name": "",
          "type": "address"
        }
      ],
      "stateMutability": "view",
      "type": "function"
    },
    {
      "inputs": [],
      "name": "initialize",
      "outputs": [],
      "stateMutability": "nonpayable",
      "type": "function"
    },
    {
      "inputs": [
        {
          "internalType": "address",
          "name": "owner",
          "type": "address"
        },
        {
          "internalType": "address",
          "name": "operator",
          "type": "address"
        }
      ],
      "name": "isApprovedForAll",
      "outputs": [
        {
          "internalType": "bool",
          "name": "",
          "type": "bool"
        }
      ],
      "stateMutability": "view",
      "type": "function"
    },
    {
      "inputs": [],
      "name": "name",
      "outputs": [
        {
          "internalType": "string",
          "name": "",
          "type": "string"
        }
      ],
      "stateMutability": "view",
      "type": "function"
    },
    {
      "inputs": [],
      "name": "owner",
      "outputs": [
        {
          "internalType": "address",
          "name": "",
          "type": "address"
        }
      ],
      "stateMutability": "view",
      "type": "function"
    },
    {
      "inputs": [
        {
          "internalType": "uint256",
          "name": "tokenId",
          "type": "uint256"
        }
      ],
      "name": "ownerOf",
      "outputs": [
        {
          "internalType": "address",
          "name": "",
          "type": "address"
        }
      ],
      "stateMutability": "view",
      "type": "function"
    },
    {
      "inputs": [],
      "name": "renounceOwnership",
      "outputs": [],
      "stateMutability": "nonpayable",
      "type": "function"
    },
    {
      "inputs": [
        {
          "internalType": "address",
          "name": "to",
          "type": "address"
        },
        {
          "internalType": "string",
          "name": "uri",
          "type": "string"
        }
      ],
      "name": "safeMint",
      "outputs": [],
      "stateMutability": "nonpayable",
      "type": "function"
    },
    {
      "inputs": [
        {
          "internalType": "address",
          "name": "from",
          "type": "address"
        },
        {
          "internalType": "address",
          "name": "to",
          "type": "address"
        },
        {
          "internalType": "uint256",
          "name": "tokenId",
          "type": "uint256"
        }
      ],
      "name": "safeTransferFrom",
      "outputs": [],
      "stateMutability": "nonpayable",
      "type": "function"
    },
    {
      "inputs": [
        {
          "internalType": "address",
          "name": "from",
          "type": "address"
        },
        {
          "internalType": "address",
          "name": "to",
          "type": "address"
        },
        {
          "internalType": "uint256",
          "name": "tokenId",
          "type": "uint256"
        },
        {
          "internalType": "bytes",
          "name": "data",
          "type": "bytes"
        }
      ],
      "name": "safeTransferFrom",
      "outputs": [],
      "stateMutability": "nonpayable",
      "type": "function"
    },
    {
      "inputs": [
        {
          "internalType": "address",
          "name": "operator",
          "type": "address"
        },
        {
          "internalType": "bool",
          "name": "approved",
          "type": "bool"
        }
      ],
      "name": "setApprovalForAll",
      "outputs": [],
      "stateMutability": "nonpayable",
      "type": "function"
    },
    {
      "inputs": [
        {
          "internalType": "bytes4",
          "name": "interfaceId",
          "type": "bytes4"
        }
      ],
      "name": "supportsInterface",
      "outputs": [
        {
          "internalType": "bool",
          "name": "",
          "type": "bool"
        }
      ],
      "stateMutability": "view",
      "type": "function"
    },
    {
      "inputs": [],
      "name": "symbol",
      "outputs": [
        {
          "internalType": "string",
          "name": "",
          "type": "string"
        }
      ],
      "stateMutability": "view",
      "type": "function"
    },
    {
      "inputs": [
        {
          "internalType": "uint256",
          "name": "tokenId",
          "type": "uint256"
        }
      ],
      "name": "tokenURI",
      "outputs": [
        {
          "internalType": "string",
          "name": "",
          "type": "string"
        }
      ],
      "stateMutability": "view",
      "type": "function"
    },
    {
      "inputs": [
        {
          "internalType": "address",
          "name": "from",
          "type": "address"
        },
        {
          "internalType": "address",
          "name": "to",
          "type": "address"
        },
        {
          "internalType": "uint256",
          "name": "tokenId",
          "type": "uint256"
        }
      ],
      "name": "transferFrom",
      "outputs": [],
      "stateMutability": "nonpayable",
      "type": "function"
    },
    {
      "inputs": [
        {
          "internalType": "address",
          "name": "newOwner",
          "type": "address"
        }
      ],
      "name": "transferOwnership",
      "outputs": [],
      "stateMutability": "nonpayable",
      "type": "function"
    }
  ],
  "bytecode": "0x60806040523480156200001157600080fd5b50620000226200002860201b60201c565b620001d3565b600060019054906101000a900460ff16156200007b576040517f08c379a0000000000000000000000000000000000000000000000000000000008152600401620000729062000176565b60405180910390fd5b60ff801660008054906101000a900460ff1660ff161015620000ed5760ff6000806101000a81548160ff021916908360ff1602179055507f7f26b83ff96e1f2b6a682f133852f6798a09c465da95921460cefb384740249860ff604051620000e49190620001b6565b60405180910390a15b565b600082825260208201905092915050565b7f496e697469616c697a61626c653a20636f6e747261637420697320696e69746960008201527f616c697a696e6700000000000000000000000000000000000000000000000000602082015250565b60006200015e602783620000ef565b91506200016b8262000100565b604082019050919050565b6000602082019050818103600083015262000191816200014f565b9050919050565b600060ff82169050919050565b620001b08162000198565b82525050565b6000602082019050620001cd6000830184620001a5565b92915050565b6131e580620001e36000396000f3fe608060405234801561001057600080fd5b50600436106101165760003560e01c80638129fc1c116100a2578063b88d4fde11610071578063b88d4fde146102b9578063c87b56dd146102d5578063d204c45e14610305578063e985e9c514610321578063f2fde38b1461035157610116565b80638129fc1c146102575780638da5cb5b1461026157806395d89b411461027f578063a22cb4651461029d57610116565b806323b872dd116100e957806323b872dd146101b557806342842e0e146101d15780636352211e146101ed57806370a082311461021d578063715018a61461024d57610116565b806301ffc9a71461011b57806306fdde031461014b578063081812fc14610169578063095ea7b314610199575b600080fd5b610135600480360381019061013091906120b9565b61036d565b6040516101429190612101565b60405180910390f35b61015361044f565b60405161016091906121b5565b60405180910390f35b610183600480360381019061017e919061220d565b6104e1565b604051610190919061227b565b60405180910390f35b6101b360048036038101906101ae91906122c2565b610527565b005b6101cf60048036038101906101ca9190612302565b61063f565b005b6101eb60048036038101906101e69190612302565b61069f565b005b6102076004803603810190610202919061220d565b6106bf565b604051610214919061227b565b60405180910390f35b61023760048036038101906102329190612355565b610746565b6040516102449190612391565b60405180910390f35b6102556107fe565b005b61025f610812565b005b6102696109cc565b604051610276919061227b565b60405180910390f35b6102876109f6565b60405161029491906121b5565b60405180910390f35b6102b760048036038101906102b291906123d8565b610a88565b005b6102d360048036038101906102ce919061254d565b610a9e565b005b6102ef60048036038101906102ea919061220d565b610b00565b6040516102fc91906121b5565b60405180910390f35b61031f600480360381019061031a9190612671565b610b12565b005b61033b600480360381019061033691906126cd565b610b4b565b6040516103489190612101565b60405180910390f35b61036b60048036038101906103669190612355565b610bdf565b005b60007f80ac58cd000000000000000000000000000000000000000000000000000000007bffffffffffffffffffffffffffffffffffffffffffffffffffffffff1916827bffffffffffffffffffffffffffffffffffffffffffffffffffffffff1916148061043857507f5b5e139f000000000000000000000000000000000000000000000000000000007bffffffffffffffffffffffffffffffffffffffffffffffffffffffff1916827bffffffffffffffffffffffffffffffffffffffffffffffffffffffff1916145b80610448575061044782610c63565b5b9050919050565b60606065805461045e9061273c565b80601f016020809104026020016040519081016040528092919081815260200182805461048a9061273c565b80156104d75780601f106104ac576101008083540402835291602001916104d7565b820191906000526020600020905b8154815290600101906020018083116104ba57829003601f168201915b5050505050905090565b60006104ec82610ccd565b6069600083815260200190815260200160002060009054906101000a900473ffffffffffffffffffffffffffffffffffffffff169050919050565b6000610532826106bf565b90508073ffffffffffffffffffffffffffffffffffffffff168373ffffffffffffffffffffffffffffffffffffffff1614156105a3576040517f08c379a000000000000000000000000000000000000000000000000000000000815260040161059a906127e0565b60405180910390fd5b8073ffffffffffffffffffffffffffffffffffffffff166105c2610d18565b73ffffffffffffffffffffffffffffffffffffffff1614806105f157506105f0816105eb610d18565b610b4b565b5b610630576040517f08c379a000000000000000000000000000000000000000000000000000000000815260040161062790612872565b60405180910390fd5b61063a8383610d20565b505050565b61065061064a610d18565b82610dd9565b61068f576040517f08c379a000000000000000000000000000000000000000000000000000000000815260040161068690612904565b60405180910390fd5b61069a838383610e6e565b505050565b6106ba83838360405180602001604052806000815250610a9e565b505050565b6000806106cb83611164565b9050600073ffffffffffffffffffffffffffffffffffffffff168173ffffffffffffffffffffffffffffffffffffffff16141561073d576040517f08c379a000000000000000000000000000000000000000000000000000000000815260040161073490612970565b60405180910390fd5b80915050919050565b60008073ffffffffffffffffffffffffffffffffffffffff168273ffffffffffffffffffffffffffffffffffffffff1614156107b7576040517f08c379a00000000000000000000000000000000000000000000000000000000081526004016107ae90612a02565b60405180910390fd5b606860008373ffffffffffffffffffffffffffffffffffffffff1673ffffffffffffffffffffffffffffffffffffffff168152602001908152602001600020549050919050565b6108066111a1565b610810600061121f565b565b60008060019054906101000a900460ff161590508080156108435750600160008054906101000a900460ff1660ff16105b806108705750610852306112e5565b15801561086f5750600160008054906101000a900460ff1660ff16145b5b6108af576040517f08c379a00000000000000000000000000000000000000000000000000000000081526004016108a690612a94565b60405180910390fd5b60016000806101000a81548160ff021916908360ff16021790555080156108ec576001600060016101000a81548160ff0219169083151502179055505b6109606040518060400160405280600581526020017f546f6b656e0000000000000000000000000000000000000000000000000000008152506040518060400160405280600381526020017f4d544b0000000000000000000000000000000000000000000000000000000000815250611308565b610968611365565b6109706113b6565b80156109c95760008060016101000a81548160ff0219169083151502179055507f7f26b83ff96e1f2b6a682f133852f6798a09c465da95921460cefb384740249860016040516109c09190612b06565b60405180910390a15b50565b600060c960009054906101000a900473ffffffffffffffffffffffffffffffffffffffff16905090565b606060668054610a059061273c565b80601f0160208091040260200160405190810160405280929190818152602001828054610a319061273c565b8015610a7e5780601f10610a5357610100808354040283529160200191610a7e565b820191906000526020600020905b815481529060010190602001808311610a6157829003601f168201915b5050505050905090565b610a9a610a93610d18565b838361140f565b5050565b610aaf610aa9610d18565b83610dd9565b610aee576040517f08c379a0000000000000000000000000000000000000000000000000000000008152600401610ae590612904565b60405180910390fd5b610afa8484848461157c565b50505050565b6060610b0b826115d8565b9050919050565b610b1a6111a1565b6000610b2660fb6116eb565b9050610b3260fb6116f9565b610b3c838261170f565b610b46818361172d565b505050565b6000606a60008473ffffffffffffffffffffffffffffffffffffffff1673ffffffffffffffffffffffffffffffffffffffff16815260200190815260200160002060008373ffffffffffffffffffffffffffffffffffffffff1673ffffffffffffffffffffffffffffffffffffffff16815260200190815260200160002060009054906101000a900460ff16905092915050565b610be76111a1565b600073ffffffffffffffffffffffffffffffffffffffff168173ffffffffffffffffffffffffffffffffffffffff161415610c57576040517f08c379a0000000000000000000000000000000000000000000000000000000008152600401610c4e90612b93565b60405180910390fd5b610c608161121f565b50565b60007f01ffc9a7000000000000000000000000000000000000000000000000000000007bffffffffffffffffffffffffffffffffffffffffffffffffffffffff1916827bffffffffffffffffffffffffffffffffffffffffffffffffffffffff1916149050919050565b610cd6816117a1565b610d15576040517f08c379a0000000000000000000000000000000000000000000000000000000008152600401610d0c90612970565b60405180910390fd5b50565b600033905090565b816069600083815260200190815260200160002060006101000a81548173ffffffffffffffffffffffffffffffffffffffff021916908373ffffffffffffffffffffffffffffffffffffffff160217905550808273ffffffffffffffffffffffffffffffffffffffff16610d93836106bf565b73ffffffffffffffffffffffffffffffffffffffff167f8c5be1e5ebec7d5bd14f71427d1e84f3dd0314c0f7b2291e5b200ac8c7c3b92560405160405180910390a45050565b600080610de5836106bf565b90508073ffffffffffffffffffffffffffffffffffffffff168473ffffffffffffffffffffffffffffffffffffffff161480610e275750610e268185610b4b565b5b80610e6557508373ffffffffffffffffffffffffffffffffffffffff16610e4d846104e1565b73ffffffffffffffffffffffffffffffffffffffff16145b91505092915050565b8273ffffffffffffffffffffffffffffffffffffffff16610e8e826106bf565b73ffffffffffffffffffffffffffffffffffffffff1614610ee4576040517f08c379a0000000000000000000000000000000000000000000000000000000008152600401610edb90612c25565b60405180910390fd5b600073ffffffffffffffffffffffffffffffffffffffff168273ffffffffffffffffffffffffffffffffffffffff161415610f54576040517f08c379a0000000000000000000000000000000000000000000000000000000008152600401610f4b90612cb7565b60405180910390fd5b610f5f8383836117e2565b8273ffffffffffffffffffffffffffffffffffffffff16610f7f826106bf565b73ffffffffffffffffffffffffffffffffffffffff1614610fd5576040517f08c379a0000000000000000000000000000000000000000000000000000000008152600401610fcc90612c25565b60405180910390fd5b6069600082815260200190815260200160002060006101000a81549073ffffffffffffffffffffffffffffffffffffffff02191690556001606860008573ffffffffffffffffffffffffffffffffffffffff1673ffffffffffffffffffffffffffffffffffffffff168152602001908152602001600020600082825403925050819055506001606860008473ffffffffffffffffffffffffffffffffffffffff1673ffffffffffffffffffffffffffffffffffffffff16815260200190815260200160002060008282540192505081905550816067600083815260200190815260200160002060006101000a81548173ffffffffffffffffffffffffffffffffffffffff021916908373ffffffffffffffffffffffffffffffffffffffff160217905550808273ffffffffffffffffffffffffffffffffffffffff168473ffffffffffffffffffffffffffffffffffffffff167fddf252ad1be2c89b69c2b068fc378daa952ba7f163c4a11628f55a4df523b3ef60405160405180910390a461115f8383836117e7565b505050565b60006067600083815260200190815260200160002060009054906101000a900473ffffffffffffffffffffffffffffffffffffffff169050919050565b6111a9610d18565b73ffffffffffffffffffffffffffffffffffffffff166111c76109cc565b73ffffffffffffffffffffffffffffffffffffffff161461121d576040517f08c379a000000000000000000000000000000000000000000000000000000000815260040161121490612d23565b60405180910390fd5b565b600060c960009054906101000a900473ffffffffffffffffffffffffffffffffffffffff1690508160c960006101000a81548173ffffffffffffffffffffffffffffffffffffffff021916908373ffffffffffffffffffffffffffffffffffffffff1602179055508173ffffffffffffffffffffffffffffffffffffffff168173ffffffffffffffffffffffffffffffffffffffff167f8be0079c531659141344cd1fd0a4f28419497f9722a3daafe3b4186f6b6457e060405160405180910390a35050565b6000808273ffffffffffffffffffffffffffffffffffffffff163b119050919050565b600060019054906101000a900460ff16611357576040517f08c379a000000000000000000000000000000000000000000000000000000000815260040161134e90612db5565b60405180910390fd5b61136182826117ec565b5050565b600060019054906101000a900460ff166113b4576040517f08c379a00000000000000000000000000000000000000000000000000000000081526004016113ab90612db5565b60405180910390fd5b565b600060019054906101000a900460ff16611405576040517f08c379a00000000000000000000000000000000000000000000000000000000081526004016113fc90612db5565b60405180910390fd5b61140d61186d565b565b8173ffffffffffffffffffffffffffffffffffffffff168373ffffffffffffffffffffffffffffffffffffffff16141561147e576040517f08c379a000000000000000000000000000000000000000000000000000000000815260040161147590612e21565b60405180910390fd5b80606a60008573ffffffffffffffffffffffffffffffffffffffff1673ffffffffffffffffffffffffffffffffffffffff16815260200190815260200160002060008473ffffffffffffffffffffffffffffffffffffffff1673ffffffffffffffffffffffffffffffffffffffff16815260200190815260200160002060006101000a81548160ff0219169083151502179055508173ffffffffffffffffffffffffffffffffffffffff168373ffffffffffffffffffffffffffffffffffffffff167f17307eab39ab6107e8899845ad3d59bd9653f200f220920489ca2b5937696c318360405161156f9190612101565b60405180910390a3505050565b611587848484610e6e565b611593848484846118ce565b6115d2576040517f08c379a00000000000000000000000000000000000000000000000000000000081526004016115c990612eb3565b60405180910390fd5b50505050565b60606115e382610ccd565b60006097600084815260200190815260200160002080546116039061273c565b80601f016020809104026020016040519081016040528092919081815260200182805461162f9061273c565b801561167c5780601f106116515761010080835404028352916020019161167c565b820191906000526020600020905b81548152906001019060200180831161165f57829003601f168201915b50505050509050600061168d611a65565b90506000815114156116a35781925050506116e6565b6000825111156116d85780826040516020016116c0929190612f0f565b604051602081830303815290604052925050506116e6565b6116e184611aa2565b925050505b919050565b600081600001549050919050565b6001816000016000828254019250508190555050565b611729828260405180602001604052806000815250611b0a565b5050565b611736826117a1565b611775576040517f08c379a000000000000000000000000000000000000000000000000000000000815260040161176c90612fa5565b60405180910390fd5b8060976000848152602001908152602001600020908051906020019061179c929190611faa565b505050565b60008073ffffffffffffffffffffffffffffffffffffffff166117c383611164565b73ffffffffffffffffffffffffffffffffffffffff1614159050919050565b505050565b505050565b600060019054906101000a900460ff1661183b576040517f08c379a000000000000000000000000000000000000000000000000000000000815260040161183290612db5565b60405180910390fd5b8160659080519060200190611851929190611faa565b508060669080519060200190611868929190611faa565b505050565b600060019054906101000a900460ff166118bc576040517f08c379a00000000000000000000000000000000000000000000000000000000081526004016118b390612db5565b60405180910390fd5b6118cc6118c7610d18565b61121f565b565b60006118ef8473ffffffffffffffffffffffffffffffffffffffff166112e5565b15611a58578373ffffffffffffffffffffffffffffffffffffffff1663150b7a02611918610d18565b8786866040518563ffffffff1660e01b815260040161193a949392919061301a565b602060405180830381600087803b15801561195457600080fd5b505af192505050801561198557506040513d601f19601f82011682018060405250810190611982919061307b565b60015b611a08573d80600081146119b5576040519150601f19603f3d011682016040523d82523d6000602084013e6119ba565b606091505b50600081511415611a00576040517f08c379a00000000000000000000000000000000000000000000000000000000081526004016119f790612eb3565b60405180910390fd5b805181602001fd5b63150b7a0260e01b7bffffffffffffffffffffffffffffffffffffffffffffffffffffffff1916817bffffffffffffffffffffffffffffffffffffffffffffffffffffffff191614915050611a5d565b600190505b949350505050565b60606040518060400160405280600781526020017f697066733a2f2f00000000000000000000000000000000000000000000000000815250905090565b6060611aad82610ccd565b6000611ab7611a65565b90506000815111611ad75760405180602001604052806000815250611b02565b80611ae184611b65565b604051602001611af2929190612f0f565b6040516020818303038152906040525b915050919050565b611b148383611c3d565b611b2160008484846118ce565b611b60576040517f08c379a0000000000000000000000000000000000000000000000000000000008152600401611b5790612eb3565b60405180910390fd5b505050565b606060006001611b7484611e57565b01905060008167ffffffffffffffff811115611b9357611b92612422565b5b6040519080825280601f01601f191660200182016040528015611bc55781602001600182028036833780820191505090505b509050600082602001820190505b600115611c32578080600190039150507f3031323334353637383961626364656600000000000000000000000000000000600a86061a8153600a8581611c1c57611c1b6130a8565b5b0494506000851415611c2d57611c32565b611bd3565b819350505050919050565b600073ffffffffffffffffffffffffffffffffffffffff168273ffffffffffffffffffffffffffffffffffffffff161415611cad576040517f08c379a0000000000000000000000000000000000000000000000000000000008152600401611ca490613123565b60405180910390fd5b611cb6816117a1565b15611cf6576040517f08c379a0000000000000000000000000000000000000000000000000000000008152600401611ced9061318f565b60405180910390fd5b611d02600083836117e2565b611d0b816117a1565b15611d4b576040517f08c379a0000000000000000000000000000000000000000000000000000000008152600401611d429061318f565b60405180910390fd5b6001606860008473ffffffffffffffffffffffffffffffffffffffff1673ffffffffffffffffffffffffffffffffffffffff16815260200190815260200160002060008282540192505081905550816067600083815260200190815260200160002060006101000a81548173ffffffffffffffffffffffffffffffffffffffff021916908373ffffffffffffffffffffffffffffffffffffffff160217905550808273ffffffffffffffffffffffffffffffffffffffff16600073ffffffffffffffffffffffffffffffffffffffff167fddf252ad1be2c89b69c2b068fc378daa952ba7f163c4a11628f55a4df523b3ef60405160405180910390a4611e53600083836117e7565b5050565b600080600090507a184f03e93ff9f4daa797ed6e38ed64bf6a1f0100000000000000008310611eb5577a184f03e93ff9f4daa797ed6e38ed64bf6a1f0100000000000000008381611eab57611eaa6130a8565b5b0492506040810190505b6d04ee2d6d415b85acef81000000008310611ef2576d04ee2d6d415b85acef81000000008381611ee857611ee76130a8565b5b0492506020810190505b662386f26fc100008310611f2157662386f26fc100008381611f1757611f166130a8565b5b0492506010810190505b6305f5e1008310611f4a576305f5e1008381611f4057611f3f6130a8565b5b0492506008810190505b6127108310611f6f576127108381611f6557611f646130a8565b5b0492506004810190505b60648310611f925760648381611f8857611f876130a8565b5b0492506002810190505b600a8310611fa1576001810190505b80915050919050565b828054611fb69061273c565b90600052602060002090601f016020900481019282611fd8576000855561201f565b82601f10611ff157805160ff191683800117855561201f565b8280016001018555821561201f579182015b8281111561201e578251825591602001919060010190612003565b5b50905061202c9190612030565b5090565b5b80821115612049576000816000905550600101612031565b5090565b6000604051905090565b600080fd5b600080fd5b60007fffffffff0000000000000000000000000000000000000000000000000000000082169050919050565b61209681612061565b81146120a157600080fd5b50565b6000813590506120b38161208d565b92915050565b6000602082840312156120cf576120ce612057565b5b60006120dd848285016120a4565b91505092915050565b60008115159050919050565b6120fb816120e6565b82525050565b600060208201905061211660008301846120f2565b92915050565b600081519050919050565b600082825260208201905092915050565b60005b8381101561215657808201518184015260208101905061213b565b83811115612165576000848401525b50505050565b6000601f19601f8301169050919050565b60006121878261211c565b6121918185612127565b93506121a1818560208601612138565b6121aa8161216b565b840191505092915050565b600060208201905081810360008301526121cf818461217c565b905092915050565b6000819050919050565b6121ea816121d7565b81146121f557600080fd5b50565b600081359050612207816121e1565b92915050565b60006020828403121561222357612222612057565b5b6000612231848285016121f8565b91505092915050565b600073ffffffffffffffffffffffffffffffffffffffff82169050919050565b60006122658261223a565b9050919050565b6122758161225a565b82525050565b6000602082019050612290600083018461226c565b92915050565b61229f8161225a565b81146122aa57600080fd5b50565b6000813590506122bc81612296565b92915050565b600080604083850312156122d9576122d8612057565b5b60006122e7858286016122ad565b92505060206122f8858286016121f8565b9150509250929050565b60008060006060848603121561231b5761231a612057565b5b6000612329868287016122ad565b935050602061233a868287016122ad565b925050604061234b868287016121f8565b9150509250925092565b60006020828403121561236b5761236a612057565b5b6000612379848285016122ad565b91505092915050565b61238b816121d7565b82525050565b60006020820190506123a66000830184612382565b92915050565b6123b5816120e6565b81146123c057600080fd5b50565b6000813590506123d2816123ac565b92915050565b600080604083850312156123ef576123ee612057565b5b60006123fd858286016122ad565b925050602061240e858286016123c3565b9150509250929050565b600080fd5b600080fd5b7f4e487b7100000000000000000000000000000000000000000000000000000000600052604160045260246000fd5b61245a8261216b565b810181811067ffffffffffffffff8211171561247957612478612422565b5b80604052505050565b600061248c61204d565b90506124988282612451565b919050565b600067ffffffffffffffff8211156124b8576124b7612422565b5b6124c18261216b565b9050602081019050919050565b82818337600083830152505050565b60006124f06124eb8461249d565b612482565b90508281526020810184848401111561250c5761250b61241d565b5b6125178482856124ce565b509392505050565b600082601f83011261253457612533612418565b5b81356125448482602086016124dd565b91505092915050565b6000806000806080858703121561256757612566612057565b5b6000612575878288016122ad565b9450506020612586878288016122ad565b9350506040612597878288016121f8565b925050606085013567ffffffffffffffff8111156125b8576125b761205c565b5b6125c48782880161251f565b91505092959194509250565b600067ffffffffffffffff8211156125eb576125ea612422565b5b6125f48261216b565b9050602081019050919050565b600061261461260f846125d0565b612482565b9050828152602081018484840111156126305761262f61241d565b5b61263b8482856124ce565b509392505050565b600082601f83011261265857612657612418565b5b8135612668848260208601612601565b91505092915050565b6000806040838503121561268857612687612057565b5b6000612696858286016122ad565b925050602083013567ffffffffffffffff8111156126b7576126b661205c565b5b6126c385828601612643565b9150509250929050565b600080604083850312156126e4576126e3612057565b5b60006126f2858286016122ad565b9250506020612703858286016122ad565b9150509250929050565b7f4e487b7100000000000000000000000000000000000000000000000000000000600052602260045260246000fd5b6000600282049050600182168061275457607f821691505b602082108114156127685761276761270d565b5b50919050565b7f4552433732313a20617070726f76616c20746f2063757272656e74206f776e6560008201527f7200000000000000000000000000000000000000000000000000000000000000602082015250565b60006127ca602183612127565b91506127d58261276e565b604082019050919050565b600060208201905081810360008301526127f9816127bd565b9050919050565b7f4552433732313a20617070726f76652063616c6c6572206973206e6f7420746f60008201527f6b656e206f776e6572206f7220617070726f76656420666f7220616c6c000000602082015250565b600061285c603d83612127565b915061286782612800565b604082019050919050565b6000602082019050818103600083015261288b8161284f565b9050919050565b7f4552433732313a2063616c6c6572206973206e6f7420746f6b656e206f776e6560008201527f72206f7220617070726f76656400000000000000000000000000000000000000602082015250565b60006128ee602d83612127565b91506128f982612892565b604082019050919050565b6000602082019050818103600083015261291d816128e1565b9050919050565b7f4552433732313a20696e76616c696420746f6b656e2049440000000000000000600082015250565b600061295a601883612127565b915061296582612924565b602082019050919050565b600060208201905081810360008301526129898161294d565b9050919050565b7f4552433732313a2061646472657373207a65726f206973206e6f74206120766160008201527f6c6964206f776e65720000000000000000000000000000000000000000000000602082015250565b60006129ec602983612127565b91506129f782612990565b604082019050919050565b60006020820190508181036000830152612a1b816129df565b9050919050565b7f496e697469616c697a61626c653a20636f6e747261637420697320616c72656160008201527f647920696e697469616c697a6564000000000000000000000000000000000000602082015250565b6000612a7e602e83612127565b9150612a8982612a22565b604082019050919050565b60006020820190508181036000830152612aad81612a71565b9050919050565b6000819050919050565b600060ff82169050919050565b6000819050919050565b6000612af0612aeb612ae684612ab4565b612acb565b612abe565b9050919050565b612b0081612ad5565b82525050565b6000602082019050612b1b6000830184612af7565b92915050565b7f4f776e61626c653a206e6577206f776e657220697320746865207a65726f206160008201527f6464726573730000000000000000000000000000000000000000000000000000602082015250565b6000612b7d602683612127565b9150612b8882612b21565b604082019050919050565b60006020820190508181036000830152612bac81612b70565b9050919050565b7f4552433732313a207472616e736665722066726f6d20696e636f72726563742060008201527f6f776e6572000000000000000000000000000000000000000000000000000000602082015250565b6000612c0f602583612127565b9150612c1a82612bb3565b604082019050919050565b60006020820190508181036000830152612c3e81612c02565b9050919050565b7f4552433732313a207472616e7366657220746f20746865207a65726f2061646460008201527f7265737300000000000000000000000000000000000000000000000000000000602082015250565b6000612ca1602483612127565b9150612cac82612c45565b604082019050919050565b60006020820190508181036000830152612cd081612c94565b9050919050565b7f4f776e61626c653a2063616c6c6572206973206e6f7420746865206f776e6572600082015250565b6000612d0d602083612127565b9150612d1882612cd7565b602082019050919050565b60006020820190508181036000830152612d3c81612d00565b9050919050565b7f496e697469616c697a61626c653a20636f6e7472616374206973206e6f74206960008201527f6e697469616c697a696e67000000000000000000000000000000000000000000602082015250565b6000612d9f602b83612127565b9150612daa82612d43565b604082019050919050565b60006020820190508181036000830152612dce81612d92565b9050919050565b7f4552433732313a20617070726f766520746f2063616c6c657200000000000000600082015250565b6000612e0b601983612127565b9150612e1682612dd5565b602082019050919050565b60006020820190508181036000830152612e3a81612dfe565b9050919050565b7f4552433732313a207472616e7366657220746f206e6f6e20455243373231526560008201527f63656976657220696d706c656d656e7465720000000000000000000000000000602082015250565b6000612e9d603283612127565b9150612ea882612e41565b604082019050919050565b60006020820190508181036000830152612ecc81612e90565b9050919050565b600081905092915050565b6000612ee98261211c565b612ef38185612ed3565b9350612f03818560208601612138565b80840191505092915050565b6000612f1b8285612ede565b9150612f278284612ede565b91508190509392505050565b7f45524337323155524953746f726167653a2055524920736574206f66206e6f6e60008201527f6578697374656e7420746f6b656e000000000000000000000000000000000000602082015250565b6000612f8f602e83612127565b9150612f9a82612f33565b604082019050919050565b60006020820190508181036000830152612fbe81612f82565b9050919050565b600081519050919050565b600082825260208201905092915050565b6000612fec82612fc5565b612ff68185612fd0565b9350613006818560208601612138565b61300f8161216b565b840191505092915050565b600060808201905061302f600083018761226c565b61303c602083018661226c565b6130496040830185612382565b818103606083015261305b8184612fe1565b905095945050505050565b6000815190506130758161208d565b92915050565b60006020828403121561309157613090612057565b5b600061309f84828501613066565b91505092915050565b7f4e487b7100000000000000000000000000000000000000000000000000000000600052601260045260246000fd5b7f4552433732313a206d696e7420746f20746865207a65726f2061646472657373600082015250565b600061310d602083612127565b9150613118826130d7565b602082019050919050565b6000602082019050818103600083015261313c81613100565b9050919050565b7f4552433732313a20746f6b656e20616c7265616479206d696e74656400000000600082015250565b6000613179601c83612127565b915061318482613143565b602082019050919050565b600060208201905081810360008301526131a88161316c565b905091905056fea26469706673582212205fa2cbe6bbf7b796e65f726468c55abe36e741c97e68885819447171643cef9264736f6c63430008090033",
  "linkReferences": {},
  "deployedLinkReferences": {}
}